:020000040800F2
:10000000584D002061020008BF2C0008F1270008AD
:10001000BD2C0008590E0008E9350008000000005A
:10002000000000000000000000000000A101000826
:100030005B0E000800000000FD010008892F000889
:100040007B0200087B0200087B0200087B0200089C
:100050007B0200087B0200087B0200087B0200088C
:100060007B0200087B0200087B0200087B0200087C
:100070007B0200087B0200087B0200087B0200086C
:100080007B0200087B0200087B0200087B0200085C
:100090007B0200087B0200087B0200087B0200084C
:1000A0007B0200087B0200087B0200087B0200083C
:1000B0007B0200087B0200087B0200087B0200082C
:1000C0007B0200087B0200087B0200087B0200081C
:1000D0007B0200087B020008D1350008DD350008EE
:1000E0007B0200087B0200087B0200087B020008FC
:1000F0007B0200087B0200087B0200087B020008EC
:100100007B0200087B0200087B0200087B020008DB
:100110007B0200087B0200084530000851300008CF
:100120007B0200087B0200087B0200087B020008BB
:100130007B0200087B0200087B0200087B020008AB
:100140007B0200087B0200087B0200087B0200089B
:100150007B0200087B0200087B0200087B0200088B
:100160007B0200087B0200087B0200087B0200087B
:100170007B0200087B0200087B02000800000000F0
:100180007B0200087B020008DFF810D000F038FE88
:100190000048004771460008AFF30080584D00202A
:1001A0002C4B19680868B0E8F04F80F30988BFF35A
:1001B0006F8F4FF0000080F311887047000000003F
:1001C00008480068006880F308884FF0000080F35A
:1001D000148862B661B6BFF34F8FBFF36F8F00DF35
:1001E00000BF00BF08ED00E0DFF80C00016841F43B
:1001F00070010160704700BF88ED00E0EFF30980F7
:10020000BFF36F8F134B1A681EF0100F08BF20ED5D
:10021000108A20E9F04F106009B44FF0500080F3CD
:100220001188BFF34F8FBFF36F8F05F0E9F94FF0DF
:10023000000080F3118809BC19680868B0E8F04F25
:100240001EF0100F08BFB0EC108A80F30988BFF3CE
:100250006F8F704794000020EFF305807047000017
:100260000648804706480047FEE7FEE7FEE7FEE750
:10027000FEE7FEE7FEE7FEE7FEE7FEE735300008B3
:10028000890100082DE9F05F0546002092469B4653
:1002900088460646814640241BE02846414647469C
:1002A000224600F064FC53465A46C01A914110D3CE
:1002B00011461846224600F04BFC2D1A67EB010848
:1002C0004F4622460120002100F042FC17EB0009B6
:1002D0004E41201EA4F10104DFDC484631462A4687
:1002E0004346BDE8F09FA0F14101192900D8203014
:1002F000704740EA01039B0703D009E008C9121FB9
:1003000008C0042AFAD203E011F8013B00F8013BCF
:10031000521EF9D27047D2B201E000F8012B491EFB
:10032000FBD270470022F6E710B513460A46044692
:100330001946FFF7F0FF204610BD421C10F8011BC4
:100340000029FBD1801A704710B5002200E0521C32
:10035000835C8C5CA34201D1002BF8D1D8B2E1B20E
:10036000401A10BD034611F8012B00F8012B002A9A
:10037000F9D11846704730B505460020034600E025
:100380005B1C934205D2EC5CC85C201A01D1002CA6
:10039000F6D130BD2DE9FF4F087883B09946FF288C
:1003A00005D0491C2D2804D00024002008E000209E
:1003B0000BE00124F9E700EB800003EB4000491C4F
:1003C0000B78FF2BF7D104B140420023029314783D
:1003D00019461D462D2C01D02B2C04D1521C2D2C3E
:1003E00013D000240294AA461478FF2C0FD00A25BB
:1003F000A3FB057801FB05814FF0000C03FB0C11FA
:10040000521CE3194AEB0101EEE70124EAE78144BB
:1004100053EA010002D019F5C87F06DA03980021DB
:10042000C0E9001107B0BDE8F08F0025AE4E2F46A1
:10043000DFF8B882184600F0BFFCCDE90001B9F141
:10044000000002DAC9F1000400E004460023A74AD4
:100450001AEB030B42EB045A12E0E00707D02A46DE
:1004600033463846414600F0ECF9074688462A46AE
:1004700033461046194600F0E4F905460E4664106E
:10048000002CEAD1DDE90001B9F1000F5A465346CC
:1004900006DA00F048FA3A46434600F044FA05E02E
:1004A00000F0CFF93A46434600F0CBF9029A0AB180
:1004B00081F00041039AC2E90001B3E72DE9FF4F43
:1004C0001F468DB0D7E901464FF0FF382E20454634
:1004D0004FF000090B90B9696D1C0E988847396A76
:1004E000824688470028F6D1BAF1FF3F0AD024F4AB
:1004F000D064002E11DDBAF12B0F08D0BAF12D0F08
:100500000BD102E0404611B08DE744F48064B96934
:100510006D1C0E9888478246761E6946600501D597
:100520002D2000E02B208DF8000001F1010B0DF1D2
:10053000200809E0B9696D1C0E98884782460F981B
:1005400044F40074761E0560002E02DDBAF1300F0F
:10055000F0D00B998A453ED144F0800406E00F9913
:10056000681CA9F1010944F400740860B9696D1CA4
:10057000761E0E98884782463028F0D02BE00B99E3
:100580008A4505D1200603D444F08004761E18E085
:10059000504603F0C3F908B30DF11301761E44F47D
:1005A00000748B4508D2AAF130000BF8010B20062D
:1005B00007D5A9F1010003E0200602D409F10100EA
:1005C0008146A00502D50F99681C0860B9696D1CA9
:1005D0000E9888478246002ED1DC53E0002E51DD74
:1005E000BAF1650F02D0BAF1450F4BD1A00549D53C
:1005F000B9696D1C24F44074761E0E9888478246B3
:10060000002E0CDD2B2804D0BAF12D0F07D144F4B5
:100610008074B9696D1C0E9888478246761EE00585
:1006200001D52D2100E02B2108F8011BCDF82C80ED
:1006300021E00DF12901761E44F4007488450CD2A6
:10064000AAF1300010F0FF0088F8000002D10B99E9
:10065000884509D908F1010806E0E00501D52448DC
:1006600001E042F20F708146B9696D1C0E9888470F
:1006700082460F980560002E04DD504603F04EF9C7
:100680000028D6D1F9690E988847FF208BF8000022
:1006900088F800000020069007904B466A4608A99B
:1006A00006A8FFF777FEA00502D46FF001002AE745
:1006B00014F0240F0AD0E00714D1DDE906123868DF
:1006C000031D3B600068C0E900120BE0DDE9060194
:1006D00000F00CFA0146E00704D13868021D3A60C8
:1006E0000068016028460EE7000014400000F03F5B
:1006F000F1D8FFFF2DE9FE4F804681EA0300C00FCD
:100700000C46009021F0004123F00045B8EB0200B8
:10071000A94105D24046214690461C460B4602465A
:1007200023F00040104347D0270DC7F30A00C3F35E
:100730000A510290401A019040286BDAC3F313006B
:1007400040F4801B0098924620B10023D2EB030AAC
:1007500063EB0B0B01985946C0F14002504600F084
:10076000F7F906460D4650465946019A00F00FFA31
:1007700010EB08006141002487EA115284EAE77314
:100780001A4340D0009A62B3019A012A4FEA0752F5
:1007900015DC001B61EB02014FF0004202EA075238
:1007A000CDE90042001C41F5801132462B4600F095
:1007B000B5FA03B0BDE8F08F40462146F9E7001BCB
:1007C00061EB0201001C41F5801300185B41201809
:1007D000A2F5001747EB030140EAD570B6196D4149
:1007E00011E06D084FEA360645EAC0754FEA075238
:1007F000001B61EB0201001C41F5801149084FEA22
:1008000030000019514132462B4603B0BDE8F04F8D
:1008100000F075BA0098012240000023D0EB0202DC
:1008200063EBE073009821464FEAE074B8EB0000F8
:1008300061EB0401E9E783F000435BE781F00041ED
:1008400058E72DE9FE4F81EA030404F0004421F04B
:10085000004100944FF0000B23F0004350EA0104E4
:100860005ED052EA03045BD0C3F30A54C1F30A55C5
:100870002C44A4F2F3340194A0FB0254C1F31301FD
:1008800041F48011C3F3130343F4801301FB0244CA
:1008900000FB034E840A970A44EA815447EA8357CF
:1008A000A4FB076802958D0A05FB07854FEA932C88
:1008B00004FB0C542705029D4FEA065847EA1637F9
:1008C000B5EB08056EEB070C870E920E47EA811711
:1008D00042EA8312A7FB0201B6EB0B0164EB0004B2
:1008E0002B0D43EA0C335E1844EB1C50DA4651469C
:1008F000E7FB0201C5F313044FEA0B3343EA145339
:100900004FEA0432019C43EA0603A4F10C0402946A
:10091000009CCDE900B400F001FA03B0BDE8F08F0F
:1009200000200146F9E72DE9F04D81EA030404F0C7
:10093000004B21F0004514464FF0000A23F000411F
:1009400050EA050220D054EA01021DD0C5F30A572F
:100950000246C5F31303C1F31300C1F30A5640F472
:10096000801543F48013A7EB0608101BD64608F247
:10097000FD3873EB050002D308F1010801E092187D
:100980005B41B8F1000F03DA00200146BDE8F08DAD
:1009900000204FF48011064684460EE0171B73EBCF
:1009A000050705D3121B63EB050306434CEA010C54
:1009B00049084FEA300092185B4150EA0107EDD137
:1009C00052EA030012D082EA040083EA05010843D8
:1009D00005D0101BAB4106D20122002306E0002205
:1009E0004FF0004302E06FF0010253101AEB0600D3
:1009F0004CEB085110EB0A0041EB0B01BDE8F04D48
:100A000000F07DB90EB5C10F80EAE0700844CA0756
:100A1000002140F233438DE80E000A460B4600F0F9
:100A20007DF903B000BD70B5C1F30A5201F0004575
:100A30000024C1F3130140F2FF3341F480119A42C4
:100A400001DA002070BD40F233439A42A2F23342F1
:100A500003DC524200F08BF800E090402C43F1D0D0
:100A6000404270BD00F0004230F000400AD0C10D9D
:100A700001F56071C0F3160042EA0151C208400757
:100A800011437047002001467047000030B5041E36
:100A900071F1000404DB4FF00044404264EB0101BB
:100AA000141E73F1000405DB1C464FF00043524254
:100AB00063EB04038B4208BF824230BD30B5041E95
:100AC00071F1000404DB4FF00044404264EB01018B
:100AD000141E73F1000405DB1C464FF00043524224
:100AE00063EB0403994208BF904230BD01F000431C
:100AF00030B421F0004150EA010206D00A0DA2F5FF
:100B00006072C1F31301002A02DC30BC0020704780
:100B1000440F44EAC104C100E01830BC00EBC250ED
:100B200000F0B6B830B50B46014600202022012463
:100B300009E021FA02F59D4205D303FA02F5491BAB
:100B400004FA02F52844151EA2F10102F1DC30BDC1
:100B5000202A04DB203A00FA02F10020704791407D
:100B6000C2F1200320FA03F3194390407047202A72
:100B700004DB203A21FA02F00021704721FA02F347
:100B8000D040C2F120029140084319467047202A04
:100B900006DBCB17203A41FA02F043EAE07306E0A5
:100BA00041FA02F3D040C2F12002914008431946B5
:100BB0007047426842B1016811F8013B23B1521EEF
:100BC000C0E90012184670470121C160881E7047B5
:100BD00042685AB1C368016843B983688B4205D043
:100BE000491E521CC0E90012002070474FF0FF3030
:100BF000704700000FB4002300B589B00CA9009124
:100C00000B996FF00042CB601E4B06931E4B07936F
:100C10000423CDE901321D4A089202466B460020AA
:100C2000FFF74CFC09B05DF814FB70B586B00646C2
:100C30004FF0FF300091CDE90101002015460C4630
:100C400004903246694604A8FFF7D4FF0246049890
:100C5000211825B108B1084600E020462860049814
:100C600000280DD0002A02DD0098884208D0081B19
:100C70000094CDE901043246694604A8FFF7BAFFA3
:100C800006B070BDB30B0008D10B0008250E00089C
:100C90000029A8BF7047401C490008BF20F0010090
:100CA000704710B4B0FA80FC00FA0CF050EA01046E
:100CB00004BF10BC704749B1CCF1200421FA04F400
:100CC00011FA0CF118BF012121430843A3EB0C01D9
:100CD000CB1D4FEA00614FEA102042BF002010BC3C
:100CE000704700EBC35010440029A4BF10BC7047EC
:100CF000401C490008BF20F0010010BC704710B52F
:100D0000141E73F1000408DA401C41F1000192182E
:100D10005B411A4301D120F0010010BD2DE9F04DD7
:100D200092469B4611B1B1FA81F202E0B0FA80F22C
:100D300020329046FFF70CFF04460F4640EA0A00B7
:100D400041EA0B0153465A46084313D0114653EA71
:100D5000010019D0C8F140025046FFF708FF0546D0
:100D60000E46504659464246FFF7F2FE084305D06C
:100D7000012004E020463946BDE8F08D00200543FF
:100D800046EAE0762C4337430A986305E40AA0EB71
:100D900008000022FD0A44EA47540A3002D5002028
:100DA0000146E9E7010510196941DDE90845001927
:100DB0006941BDE8F04DA2E70EB540F23342029220
:100DC0000022CDE900221346FFF7A8FF03B000BDC3
:100DD000C1F30A52C1F3130140F2FF3341F4801111
:100DE0009A4202DA00200146704740F233439A42A9
:100DF000A2F2334202DC5242FFF7B9BEFFF7A8BEAF
:100E0000064C074D06E0E06840F0010394E8070057
:100E100098471034AC42F6D3FFF7BAF9A85A000845
:100E2000C85A0008C0B24FF4F05100F001B80000F9
:100E30007F2801D9002208E0064A02EB5002C007D1
:100E4000127800D1120902F00F02012090400840F0
:100E500070470000445A0008FEE7704772B6FEE78C
:100E60002DE9F0410446876D00F054F9064694F8E8
:100E700035000025022806D08020606584F83450B3
:100E80000120BDE8F0812068016821F016010160B1
:100E90002068416921F080014161206C08B9A06C93
:100EA00020B12068016821F0080101602068016814
:100EB00021F0010101600CE000F02CF9801B0528F5
:100EC00007D920206065032084F8350084F8345069
:100ED000D7E720680068C007EED194F85C103F2087
:100EE0008840B860012084F8350084F83450002030
:100EF000C7E790F83510022903D080214165012011
:100F00007047052180F835100068016821F0010163
:100F100001600020704700002DE9F84FDFF8BCA108
:100F20000022012503264FF00F090AF1040BAAF154
:100F3000040E00BF0B6805FA02F42340A34270D1EF
:100F40000F7907F00307012F01D0022F16D1876810
:100F50004FEA420806FA08FC27EA0C07D1F80CC051
:100F60000CFA08FC4CEA070CC0F808C04768A74315
:100F70000C79C4F3001494403C4344600C79E4437E
:100F8000A4070AD0C4684FEA420C06FA0CF7BC4327
:100F90008F6807FA0CF72743C7600C7904F0030445
:100FA000022C12D1D40800EB840CDCF82040570747
:100FB000FF0E09FA07F824EA0804D1F8108008FAAD
:100FC00007F848EA0408CCF8208004684FEA420C8D
:100FD00006FA0CF7BC430F7907F0030707FA0CF782
:100FE000274307604C6814F4403F70D03C4C27689E
:100FF00047F480472760246822F0030704F4804404
:101000000094384C07EB040CDCF8084897074FEACB
:10101000177809FA08F7BC43334FB84202D10027CA
:1010200024E054E0314FB84201D101271EE0304F97
:10103000B84201D1022719E02E4FB84201D103274F
:1010400014E02D4FB84201D104270FE02B4FB842D6
:1010500001D105270AE02A4FB84201D1062705E051
:10106000284FB84201D1072700E0082707FA08F700
:101070002743CCF80878DAF800405746D1F804C086
:101080009C435FEACC2C00D51C433C60DBF800405D
:101090005F46D1F804C09C435FEA8C2C00D51C430A
:1010A0003C60DEF800407746D1F804C09C435FEA1C
:1010B0008C3C00D51C433C60084F083F3C68D1F88D
:1010C00004C09C435FEACC3C00D51C433C60521CEE
:1010D000102AFFF42FAFBDE8F88F0000083C014054
:1010E0004438024000300140000002400004024049
:1010F00000080240000C02400010024000140240B0
:1011000000180240001C02400AB1816170470904C6
:10111000FBE70000014880687047000014000020D1
:1011200070B5040025D094F83D00002520B984F85E
:101130003C50204600F0B8F8242084F83D00206898
:10114000016821F0010101602068016841F400415B
:1011500001602068016821F40041016000F050FA4C
:101160004D4A6168914201D84C4900E04C4988429F
:1011700001D2012070BD4B492368B0FBF1F15E68DC
:1011800026F03F060E435E606368934206D94FF433
:10119000967359434FF47A73B1FBF3F12368491CFA
:1011A0001E6A26F03F06314319626168914210D8E9
:1011B0004900401EB0FBF1F2521CC2F30B02042A9C
:1011C00001D2042022E0B0FBF1F0401CC0F30B0080
:1011D0001CE0A268F2B301EBC10303EB0116431E4E
:1011E000B3FBF6F35B1C43F480431B0549D092B379
:1011F00001EBC10202EB0111401EB0FBF1F0401CFB
:10120000C0F30B0040F4804040F400402168CA69FC
:101210004CF6FF739A431043C861D4E907100143A9
:101220002068026822F0C00211430160D4E9030182
:1012300001432068826848F2FF339A43114381607A
:10124000D4E9050108432168CA6822F0FF0210436F
:10125000C86001E00EE016E02068016841F001017D
:1012600001602564202084F83D00256384F83E5009
:10127000002070BD01EB4106431EB3FBF6F35B1C7F
:10128000B3E70120C2E701EB4101401EB0FBF1F0E2
:10129000401CC0F30B00B7E7A086010080841E004D
:1012A00000093D0040420F002DE9F04186B00446A0
:1012B00014216846FFF736F82F4A2168DFF8BC8012
:1012C00000242E4812250326042708F11008914215
:1012D0001CD1016841F002010160006802AA00F01F
:1012E00002000590C020CDE9000582E8D0006946E3
:1012F0002348FFF711FED8F8001041F40011C8F898
:101300000010D8F8000000F4001031E01D4A9142AE
:101310002FD1016841F004010160016801F004016E
:101320000591016841F0010101600068694600F023
:10133000010005905015CDE9000502AA124882E887
:10134000D000FFF7E9FD4FF48070CDE9000502AA57
:10135000694682E8D0000D48FFF7DEFDD8F800109E
:1013600041F40001C8F80010D8F8000000F40000B3
:10137000059006B0BDE8F0810054004030380240CE
:1013800000040240005C00400008024000000240EF
:10139000024881680278114481607047140000207F
:1013A0000B4810B5016841F400710160016841F417
:1013B00080610160016841F480710160032000F0E8
:1013C00073F80F2000F006F800F024F8002010BD9C
:1013D000003C024070B50D4D04464FF47A712878F8
:1013E000B1FBF0F00A490968B1FBF0F000F010FB26
:1013F00048B9102C07D200222146501E00F034F8C4
:1014000000206C6070BD012070BD00001400002041
:10141000200000200C4882B0016841F48041016046
:10142000006800F4804000900748001F016841F008
:10143000805101600068002200F0805000900F2170
:10144000901E02B000F010B844380240002809DBBA
:1014500000F01F02012191404009800000F1E020CE
:10146000C0F8001170470000F0B40E4B1B680C462A
:10147000C3F30223C3F10705042D00D90425191D68
:10148000072901D2002300E0DB1E012606FA05F140
:10149000491E214099409E40761E16403143F0BCC3
:1014A00002F0C6B80CED00E0064900F0070208683B
:1014B0004FF6FF03184040EA0220034A1043086039
:1014C000704700000CED00E00000FA052DE9F04740
:1014D0000E46050065D0DFF81481D8F80000F7B299
:1014E00000F00700B04207D288F80070D8F800007A
:1014F00000F00700B04254D128683D4C810712D556
:10150000400703D5206840F4E050206028780007A9
:1015100003D5206840F4604020602068A96820F06E
:10152000F000084320602878C0072DD03049686853
:101530000839012812D0022813D0032811D00968D5
:10154000890700292DDA216821F003010143216078
:10155000FFF7E0FD814641F2883A0EE00968890311
:10156000EFE709688901ECE7FFF7D4FDA0EB09017B
:10157000514502D90320BDE8F0872068696800F072
:101580000C00B0EB810FEFD1D8F80010404601F00D
:101590000701B14207D90770006800F00700B042A8
:1015A00001D00120E7E72878400705D52068E968E1
:1015B00020F4E050084320602878000706D5206812
:1015C000296920F4604040EAC100206000F038F84A
:1015D0002168084AC1F30311515CC84006490860FC
:1015E00006480068FFF7F6FE0020C4E7003C024012
:1015F000083802402C5A0008200000201800002063
:101600000448054900680968044AC1F38221515C15
:10161000C840704720000020083802403C5A0008AB
:101620000448054900680968044AC1F34231515C25
:10163000C840704720000020083802403C5A00088B
:10164000154810B5006810F00C02144813D0144966
:10165000042A0FD0082A0ED10F4C241F22682368B9
:1016600002F03F025B0207D52068C0F38810A0FBA0
:10167000010106E0084610BD2168C1F38811A1FBF5
:1016800000010023FEF7FEFD2168C1F30141491C62
:101690004900B0FBF1F010BD083802400024F4000E
:1016A00040787D012DE9F84F04006ED02078DFF8F6
:1016B0004C93C007A9F104054AD009F10400016860
:1016C000C1F38101012908D00068C0F3810002281C
:1016D0000AD1D9F80000400206D52868800337D522
:1016E00060680028E1D033E06068B0F5803F10D03A
:1016F000B0F5A02F286810D020F48030286028682A
:1017000020F4802028606068A8B1FFF703FD06463A
:101710000DE0286840F48030F4E740F48020286031
:10172000F7E700BFFFF7F6FC801B642873D8286832
:101730008003F7D50CE0FFF7EDFC064605E000BF9F
:10174000FFF7E8FC801B6428F0D828688003F7D4F2
:101750002078DFF8AC8280074FF0000A3ED5A7481A
:10176000001D016811F00C0F08D00068C0F3810063
:1017700002280BD1D9F80000400207D4286880075E
:1017800016D5E068012800D112E033E1E068B8B175
:101790000120C8F80000FFF7BDFC064605E000BFC9
:1017A000FFF7B8FC801B0228C0D828688007F7D54F
:1017B0002868216920F0F80040EAC10028600DE0A7
:1017C000C8F800A0FFF7A6FC064604E0FFF7A2FC5D
:1017D000801B02281FD828688007F7D420780007CC
:1017E00022D5864F87486169703771B10121016048
:1017F000FFF790FC064604E0FFF78CFC801B0228F4
:1018000009D838688007F7D50EE0C0F800A0FFF7C8
:1018100081FC064605E082E0FFF77CFC801B022885
:101820007DD838688007F7D42078400768D5DFF87E
:10183000CCB100270BF13C0BDBF80000C0000BD44F
:10184000DBF8001041F08051CBF80010DBF800000D
:10185000012700F0805000906B4E3068C00510D416
:10186000306840F480703060FFF754FC009005E071
:10187000FFF750FC0099401A022850D83068C00584
:10188000F6D55E4EA0686C3601280FD0052830686A
:1018900010D020F001003060306820F0040030608B
:1018A000A068B8B1FFF736FC00900FE0306840F058
:1018B0000100F4E740F004003060F7E7FFF72AFC8E
:1018C0000099411A41F28830814266D83068800719
:1018D000F4D50EE0FFF71EFC009007E0FFF71AFCBE
:1018E0000099411A41F28830814256D83068800709
:1018F000F4D42FB1DBF8001021F08051CBF80010A8
:10190000A069C8B33D49091D0968C1F381010229D5
:101910004AD00228504607D0C8F8600000E03CE0FA
:10192000FFF7F8FB04463BE04746C8F86000FFF7C6
:10193000F1FB064605E000BFFFF7ECFB801B022829
:101940002BD828688001F7D4D4E907010843A16A9D
:101950002E4A490802EB0141626A41EA82110843BA
:1019600094F82C1040EA0161C9F800100120386693
:10197000FFF7D0FB044606E03EE000BFFFF7CAFBDE
:10198000001B022809D828688001F7D534E000BF81
:10199000FFF7C0FB001B022802D90320BDE8F88F27
:1019A00028688001F4D427E00128F7D0D9F8000096
:1019B000E26900F4800191421CD1226A00F03F01EB
:1019C000914217D147F6C071626A0140B1EB821FA4
:1019D00010D1A26A4FF0FF3300F4403103EB520202
:1019E000B1EB024F06D194F82C1000F07060B0EB10
:1019F000016F01D00120D1E70020CFE70438024079
:101A000000004742800E4742007000400000FFFF88
:101A100010B5401EB0F1807F01D3012010BD4FF002
:101A2000E02460610F21601701F002FE0020A06138
:101A300007202061002010BD7047704770B590F8F6
:101A40003C20012A32D0012480F83C40022280F858
:101A50003D2003685A689D6822F070060A68324388
:101A60005A60134B02689A4214D0B2F1804F11D0E1
:101A7000104B9A420ED0104B9A420BD00F4B9A4209
:101A800008D00F4B9A4205D00E4B9A4202D00E4B13
:101A90009A4204D1496825F080031943916080F887
:101AA0003D40002180F83C10084670BD022070BD0A
:101AB000000001400004004000080040000C00400D
:101AC00000040140004001400018004010B504002F
:101AD00003D094F83D0010B107E0012010BD0020B4
:101AE00084F83C00204600F01FF8022084F83D00F6
:101AF000211D206801F0B2FA012084F8460084F824
:101B00003E0084F83F0084F8400084F8410084F8E7
:101B1000420084F8430084F8440084F8450084F8C7
:101B20003D00002010BD000008B5204A0168204893
:101B300091420ED1016841F010010160006800225D
:101B400000F01000009005213620FFF78DFC3620B4
:101B500010E0184A914211D1016841F02001016062
:101B60000068002200F02000009007213720FFF7D6
:101B70007BFC3720BDE80840FFF768BC0E4A914265
:101B800007D1016841F080010160006800F0800029
:101B900009E00A4A914207D1016841F4807101606D
:101BA000006800F48070009008BD00000010004044
:101BB0004038024000140040001C0040002000405B
:101BC00090F83D10012901D001207047022180F8D2
:101BD0003D100168CA6842F00102CA6000681149FC
:101BE000884214D0B0F1804F11D00F4988420ED0F6
:101BF0000E4988420BD00E49884208D00D498842D0
:101C000005D00D49884202D00C49884204D1816830
:101C100001F00701062903D0016841F001010160CC
:101C20000020704700000140000400400008004010
:101C3000000C00400004014000400140001800403A
:101C40002DE9F0410D46040003D094F83D0018B191
:101C500008E00120BDE8F081002084F83C00204627
:101C600000F040F8022084F83D002068816844F2CA
:101C7000070291438160211D206801F0EFF922687D
:101C800090689169166A2B68AF69034340F203308C
:101C9000814341EA0721A868EF6908434FF6FC41F8
:101CA0008843E96840EA0720014328692F6A000158
:101CB00040EA0730084369686D6926F0AA0646EADB
:101CC0000515294393602268906154F8460B016220
:101CD000012004F81F09E0752076E0762077A075D2
:101CE0000020B7E730B587B0044614216846FEF7F8
:101CF00019FB214824681F4D00221F491038022378
:101D0000AC4216D10C6844F002040C60096801F082
:101D100002010591016841F0040101600068694613
:101D200000F004000590C0200090CDE90132134876
:101D300019E0134DAC421AD10C6844F004040C6055
:101D4000096801F004010591016841F00801016092
:101D50000068694600F0080005904FF4405000907C
:101D6000CDE901320748CDE90323FFF7D5F807B0E5
:101D700030BD00000004004040380240000802402E
:101D800000080040000C024070B590F83E60044628
:101D900090F83F5090F8423090F84320022021B153
:101DA00004290ED0012E1BD114E0012E18D1012BD5
:101DB00016D184F83E0084F84200012200212068F8
:101DC00020E0012D0CD1012A0AD184F83F0084F8CB
:101DD000430014E0012D03D1012B01D1012A01D0D0
:101DE000012070BD84F83E0084F83F0084F8420072
:101DF00084F8430001220021206801F093F90122B8
:101E00000421206801F08EF92068016841F0010189
:101E10000160002070BD704770B50446006801691C
:101E20004FF00005C943890715D4C168C943890724
:101E300011D4E91E016101202077206880698007A4
:101E4000204602D0FFF7E7FF04E000F0DBF8204671
:101E500000F06DF9257720680169C943490717D457
:101E6000C168C943490713D46FF00401016102201E
:101E700020772068806910F4407F204602D0FFF769
:101E8000CAFF04E000F0BEF8204600F050F92577C4
:101E900020680169C943090716D4C168C943090705
:101EA00012D46FF008010161042020772068C06916
:101EB0008007204602D0FFF7AEFF04E000F0A2F852
:101EC000204600F034F9257720680169C943C90626
:101ED00017D4C168C943C90613D46FF0100101615A
:101EE000082020772068C06910F4407F204602D087
:101EF000FFF791FF04E000F085F8204600F017F9A5
:101F0000257720680169C943C90708D1C168C94359
:101F1000C90704D1891E0161204600F06DF92068CF
:101F20000169C943090609D4C168C943090605D432
:101F30006FF0800101612046FFF77EFD2068016996
:101F4000C943490609D4C168C943490605D46FF09D
:101F500040010161204600F069F920680169C94328
:101F600089060BD4C168C943890607D46FF02001E4
:101F700001612046BDE87040FFF75FBD70BD000005
:101F800030B587B0044614216846FEF7CBF92468C3
:101F9000174D0021174802220923AC4210D10468D2
:101FA00044F020040460006800F020000590D00197
:101FB0000090CDE90121CDE9031369460E4812E0F6
:101FC0000E4DAC4211D1046844F001040460006875
:101FD00000F00100059080200090CDE90121CDE9BD
:101FE000031369460648FEF797FF07B030BD0000AF
:101FF000001C004030380240001402400020004025
:1020000000000240704770B5044690F83C0000267E
:102010000D4601280FD0012084F83C006AB1042A43
:102020001DD0082A2FD00C2A3FD00126002084F88A
:102030003C00304670BD022070BD206801F080F881
:102040002068816941F0080181612068816921F07F
:1020500004018161206881692A69114311E02068C7
:1020600001F09EF82068816941F400618161206877
:10207000816921F480618161206881692A6941EA6E
:1020800002218161D2E7206801F0C0F82068C169AF
:1020900041F00801C1612068C16921F00401C161FA
:1020A0002068C1692A69114311E0206801F0E2F853
:1020B0002068C16941F40061C1612068C16921F4EF
:1020C0008061C1612068C1692A6941EA0221C16158
:1020D000ACE710B5040003D094F83D0010B107E060
:1020E000012010BD002084F83C00204600F01EF8BE
:1020F000022084F83D00211D206800F0AFFF012080
:1021000084F8460084F83E0084F83F0084F84000DC
:1021100084F8410084F8420084F8430084F84400C5
:1021200084F8450084F83D00002010BD70477047DA
:1021300010B50446022249B104290ED0082913D053
:1021400094F84100012816D0012010BD94F83E00FB
:102150000128F9D184F83E200FE094F83F000128CF
:10216000F2D184F83F2008E094F840000128EBD138
:1021700084F8402001E084F841200122206800F02A
:10218000D1FF16492068164A884201D0904203D1F7
:10219000436C43F4004343642068884213D0B0F199
:1021A000804F10D00F4988420DD00F4988420AD085
:1021B0000E49884207D0904205D00D49884202D08E
:1021C0000C49884204D1816801F00701062903D037
:1021D000016841F001010160002010BD00000140D4
:1021E000000401400004004000080040000C0040D2
:1021F000004001400018004010B5006808498842BE
:102200000DD100F0AFFD00F0F5FA0648006800F0CF
:1022100027FE05480068BDE8104000F033BE10BD41
:1022200000140040280000202C0000207047704758
:1022300070470000F8B5016804460868CA684B6931
:1022400010F00F0F4FF0000559D003F0010602F413
:102250009077374365D0C10705D0D10503D5216CF0
:1022600041F001012164410705D5D90703D0216C54
:1022700041F002012164810705D5D90703D0216C03
:1022800041F004012164010707D502F02001314328
:1022900003D0216C41F008012164216C00293AD05F
:1022A000800604D5900602D5204601F03AF8206851
:1022B0004069216CC0F38010090700D460B3204648
:1022C00001F008F820684069400621D520681430E4
:1022D00050E8001F21F0400140E80012002AF5D12B
:1022E000A06BA8B16C490165A06BFEF702FE002847
:1022F00011D0A06B016D01B0BDE8F0400847830626
:102300000FD593060DD52046BDE8F84001F009B879
:102310002046FFF78DFFF8BD2046FFF789FF2564B3
:10232000F8BD266B2023012E79D1C60677D5D606B7
:1023300075D50868486800904869400640D5A16B8B
:10234000086840680004000CEAD0A28D8242E7D9F8
:10235000E085C869B0F5807F2DD020680C3050E84A
:10236000001F21F4807140E80012002AF5D1206896
:10237000143050E8001F21F0010140E80012002A4B
:10238000F5D12068143050E8001F21F0400140E8EA
:102390000012002AF5D184F83E30256320680C3005
:1023A00050E8001F21F0100140E80012002AF5D18A
:1023B000A06BFEF755FDA08DE18D401A81B229E09A
:1023C000A08DE18D401A81B2E08D0028A8D00029AF
:1023D000A6D020680C3050E8002F22F4907240E81C
:1023E0000026002EF5D12068143050E8002F22F08E
:1023F000010240E80026002EF5D184F83E30256326
:1024000020680C3050E8002F22F0100240E8002332
:10241000002BF5D12046FFF70AFFF8BDFFE70506C0
:102420002BD5150629D594F83D002128F5D1A068B3
:10243000B0F5805F01D12069B0B1206A411C2162F2
:10244000216800784860E08C401E0004000CE084A5
:10245000E3D12068C16821F08001C1602068C168B3
:1024600041F04001C160D8E7206A0088C0F308004D
:102470004860206A801C2062E5E74006CDD5500602
:10248000CBD5CA68204622F04002CA6084F83D30AD
:1024900000F0ADF9C1E70000C532000870B50400D6
:1024A00004D094F83D00002510B106E0012070BD75
:1024B00084F83C50204600F023F8242084F83D00A6
:1024C0002068C16821F40051C160204600F08AFFF5
:1024D0002068016921F4904101612068416921F07F
:1024E0002A0141612068C16841F40051C16025643E
:1024F000202084F83D0084F83E00002070BD0000DC
:10250000F0B587B0044614216846FDF70BFF3A4B3F
:1025100027680022394902240325072638489F42AC
:102520001CD1364B14331F6847F010071F601B681F
:1025300003F0100305930B6843F001030B60096877
:1025400002AB01F0010105916902CDE9001483E8B5
:1025500064006946FEF7E0FC07B0F0BD274BDFF8EA
:10256000A4C0103367451FD11F6847F400371F60B0
:102570001B6803F4003305930B6843F001030B6001
:10258000096802AF01F0010105910C21CDE90014A9
:1025900087E864006946FEF7BFFC0022062126207A
:1025A000FEF762FF262023E017488742D4D118683F
:1025B00040F480201860186800F4802005900868B6
:1025C00040F002000860086802AF00F002000590C9
:1025D0004FF44060CDE9000487E8640069460B4889
:1025E000FEF79AFC002206212720FEF73DFF272058
:1025F000FEF72CFFB0E70000001001403038024029
:102600000000024000440040004800400004024036
:1026100090F83E30202B0ED159B152B190F83C3099
:10262000012B08D0012380F83C300023036300F025
:102630005FBF012070470220704700002DE9F04184
:10264000074600682F49012600252F4C884222D1D9
:102650002046617900782D4B421CD2B27B2905D0EF
:1026600094F802C0BCF1010F2CD002E01954227082
:10267000A6702078FF2808D32570A570FF21234875
:10268000FDF750FE22A000F0B1FF1F490122491DB5
:102690002348FFF7BDFF2349386888422FD11B4AE2
:1026A0006078FF32A1791154401CC0B26070FF28DD
:1026B00018D36570FF211046FDF734FE1AA000F014
:1026C00095FF13E019547D292270D2D10F491A4881
:1026D000FDF748FEFF210D48FDF724FE2570A5708B
:1026E000E670D2E77D2901D165702671BDE8F04121
:1026F00005490B480122891D4430FFF789BFBDE819
:10270000F0810000004400400C0000201C07002065
:10271000555341525432204552524F52210D0A0016
:102720006009002000480040555341525433204571
:1027300052524F52210D0A000C0100202DE9F8439E
:10274000044690F83D001F4616460D4620284CD101
:10275000C5B1BEB194F83C00012846D0012084F8F0
:102760003C004FF00008C4F84080212084F83D0070
:10277000FEF7D0FCA6848146E684A068B0F5805FB1
:1027800003D004E00120BDE8F883206928B12E467B
:102790005FF0000584F83C800EE00026FAE7802117
:1027A000204600F0C2FEA0B9AEB116F8010B2168B8
:1027B0004860E08C401EE084E08C4B464FF0000205
:1027C00000970028EBD14FF04001204600F0ADFE0D
:1027D00030B10320D7E735F8020BC0F30800E6E775
:1027E000202084F83D000020CDE70220CBE7704791
:1027F000FEE7000010B5144C2078401CC0B22070D9
:10280000022809D30020207001F0ECFD84ED030ABA
:1028100001F076FE84ED040A94ED030A0B4802F001
:102820007FFC94ED040A0A4802F07AFC02F07CFC7A
:10283000BDEEC00A84ED010A02F0E2FCBDEEC00A62
:1028400084ED020A10BD000024000020E8090020E9
:10285000080A002010B596B01C2211496846FDF701
:1028600048FD0021684601F043FF0E4C0C491C2234
:1028700020601C3107A8FDF73CFD002107A801F0EE
:1028800037FF074960601C2238310EA8FDF731FD83
:1028900000210EA801F02CFFA06016B010BD0000B2
:1028A000D85900080000002010B586B014216846F1
:1028B000FDF738FD2148016841F020010160016801
:1028C00001F020010591016841F08001016001687B
:1028D00001F080010591016841F00101016001688A
:1028E00001F001010591016841F0020101600168F8
:1028F00001F002010591016841F0080101600168E1
:1029000001F008010591016841F0040101600068CF
:102910000B4C00F00400059000220F212046FEF72A
:10292000F3FB0F200121CDE900010220CDE90201D6
:1029300069462046FEF7F0FA06B010BD3038024076
:10294000001402400D4810B50B4901600C4941606C
:1029500000214FF480428160C0E90312416181612E
:10296000C1610162FEF7DCFB002803D0BDE8104026
:10297000FEF774BA10BD000000540040600400204F
:10298000A08601000D4810B50B4901600C4941605B
:1029900000214FF480428160C0E9031241618161EE
:1029A000C1610162FEF7BCFB002803D0BDE8104006
:1029B000FEF754BA10BD0000005C0040B4040020D3
:1029C000A086010010B588B01C216846FDF7AAFC5E
:1029D00015481449002401600321C0E9011440F2A4
:1029E000CF71C0E903148461FFF770F808B1FEF7F6
:1029F00035FA0D48FFF76DFB08B1FEF72FFA60209E
:102A0000CDE9000402940022694607480494FFF7C8
:102A1000FAFA08B1FEF722FA0348FFF7B1FA08B054
:102A200010BD0000001C00402806002010B588B032
:102A30001C216846FDF776FC154814490024016006
:102A40000321C0E9011440F2CF71C0E9031484618D
:102A5000FFF73CF808B1FEF701FA0D48FFF739FB24
:102A600008B1FEF7FBF96020CDE9000402940022D2
:102A7000694607480494FFF7C6FA08B1FEF7EEF975
:102A80000348FFF77DFA08B010BD000000200040A9
:102A90007006002010B58CB024216846FDF742FC7A
:102AA00000241748099415490A94C0E900144FF608
:102AB000FF71C0E902414FF400718461016103209C
:102AC000CDE900040120CDE902040494CDE90540DC
:102AD000079469460A480894FFF7B2F808B1FEF770
:102AE000BDF9099409A906480A94FEF7A7FF002832
:102AF00001D0FEF7B3F90CB010BD00000004004097
:102B00000805002010B58CB024216846FDF70AFCAA
:102B100000241648099414490A94C0E900144FF699
:102B2000FF71C0E90241046184610320CDE9000422
:102B30000120CDE902040494CDE9054007946946DB
:102B40000A480894FFF77CF808B1FEF787F9099462
:102B500009A906480A94FEF771FF002801D0FEF784
:102B60007DF90CB010BD00000008004050050020A9
:102B70001CB500240F4800940D490194016042F2F5
:102B8000CF01C0E9011442F20F718461C160FEF708
:102B90009DFF08B1FEF762F900946946054801946B
:102BA000FEF74CFF002801D0FEF758F91CBD0000CD
:102BB00000100040980500201CB500240E48009429
:102BC0000C490194016042F2CF01C0E90114C72110
:102BD0008461C160FEF77AFF08B1FEF73FF9009407
:102BE000694605480194FEF729FF002801D0FEF749
:102BF00035F91CBD00140040E00500200C4810B55C
:102C00000A4901604FF4E1314160002181600C22EA
:102C1000C160C0E904128161C161FFF73FFC002877
:102C200003D0BDE81040FEF719B910BD00100140F7
:102C30001C0900200E4810B50C4901604FF4E13129
:102C40004160002181600C22C160C0E904128161F1
:102C5000C161FFF723FC08B1FEF700F9BDE81040A1
:102C6000012204490248FFF7D3BC000000440040A1
:102C700060090020110000200E4810B50C490160C9
:102C80004FF4E1314160002181600C22C160C0E954
:102C900004128161C161FFF701FC08B1FEF7DEF8A3
:102CA000BDE81040012204490248FFF7B1BC000012
:102CB00000480040A409002012000020FEE7FEE7C3
:102CC00025489FED240ADFED250A80ED000A80EDFE
:102CD000010A80ED020A80ED030A80ED070AC0EDCB
:102CE000040A80ED050A80ED060A4038DFED1C1A63
:102CF00080ED000A80ED010A80ED020A80ED030AF2
:102D000080ED070A1030B2EE081AB1EE002A80EC0E
:102D1000031A503080ED000A80ED010A80ED020AAE
:102D200080ED030A80ED070AC0ED040A80ED050A74
:102D300080ED060A403880ED000A80ED010A80ED42
:102D4000020A80ED030A80ED070A103080EC031AB6
:102D50007047000000000000280A00209A99993E60
:102D60006666E63FF0B51B4802681068C0F30013C2
:102D700019480361D2F824C0184EC0F808C035685D
:102D80002968C1F3001444616F6A41F2883E002152
:102D9000C76043B133B1F44504DD536AA3F5803312
:102DA000836000E0816044B134B1774504DD6B6A33
:102DB000A3F58033C36000E0C160516232685162A4
:102DC0008268016811440160C26841681144416031
:102DD000F0BD00000805002038000020500500204C
:102DE00010B5064C012211462046FEF78DF920460B
:102DF0000022BDE810400221FEF786B9001402400F
:102E000010B5064C002201212046FEF77DF9204630
:102E10000122BDE810400221FEF776B900140240FD
:102E200010B5064C012204212046FEF76DF920461C
:102E30000022BDE810400821FEF766B900140240E8
:102E400010B5064C002204212046FEF75DF920460D
:102E50000122BDE810400821FEF756B900140240D7
:102E600070B5074D041E02D004DDFFF7C9FF2868C6
:102E7000446370BDFFF7B4FF29686042486370BDCA
:102E80002806002070B5074D041E02D004DDFFF7B0
:102E9000D7FF2868446370BDFFF7C2FF296860420E
:102EA000486370BD700600203C210948FEF76CFFA6
:102EB0003C210848FEF768FF00210748FFF738F972
:102EC00000210648FFF734F9052001F005FCFBE777
:102ED000080500205005002028060020700600206C
:102EE000642001F0F9FBFBE71A4C1B4D002620780B
:102EF00001281FD1194801F0F7F9194800F0D8FB53
:102F000051EC100BFDF7F2FD00EE100A01F054F940
:102F1000144802F005F9144800F0CAFB51EC100BFC
:102F2000FDF7E4FD00EE100A01F046F90F4802F04B
:102F3000F7F826702878012808D10D490DA000F077
:102F400055FB2E70FF210A48FDF7ECF9022001F035
:102F5000C3FBCCE70F000020100000200C01002074
:102F600064000020280A002069000020480A002090
:102F70001B080020726563697665206275666620AD
:102F800069732025730D0A0010B5FEF701FA02F0EF
:102F90004DFC012803D0BDE8104002F0D9BB10BDA4
:102FA00030B593B030216846FDF7BCF914210CA868
:102FB000FDF7B8F91D480025016841F08051016016
:102FC000006800F0805011901948016841F4804178
:102FD00001600068022400F48040119001200390F9
:102FE00010200490009406940820CDE90750A820F2
:102FF000CDE9090404200B906846FEF753FB08B1A5
:1030000072B6FEE70CA90F2081E831004FF4A05002
:103010000F904FF48050109005210CA8FEF756FA3F
:10302000002801D072B6FEE713B030BD4038024030
:10303000007000400248016841F47001016070476F
:1030400088ED00E00148FEF7E7BE0000980500208B
:103050000148FEF7E1BE0000E0050020F0B502687F
:10306000254C264D264E274F274B4FF0804CA04233
:1030700009D0604507D0A84205D0B04203D0B8427D
:1030800001D0984204D122F0700E4A6842EA0E0242
:10309000A0421BD0604519D0A84217D0B04215D02D
:1030A000B84213D0984211D0184DA8420ED0184DF6
:1030B000A8420BD0174DA84208D0174DA84205D002
:1030C000164DA84202D0164DA84203D122F44075F5
:1030D000CA682A434D6922F080022A4302608A6846
:1030E000C2620A688262A04201D0984201D1096995
:1030F000016301214161F0BD000001400004004076
:1031000000080040000C0040000401400040014065
:10311000004401400048014000180040001C0040ED
:103120000020004010B501F01F030121046A9940FE
:103130008C430462016A9A401143016210BD000091
:10314000F0B5026A22F001020262036A42688469F1
:10315000124E24F073050C682C4323F002058B6893
:103160002B430D4DA84201D0B04205D123F00807F2
:10317000CB683B4323F00403A84201D0B04205D101
:103180004D6922F4407215438A692A434260846182
:10319000496841630362F0BD000001400004014042
:1031A000F0B5026A22F010020262026A4368846982
:1031B0000D6824F4E64444EA05248D6822F02002D8
:1031C00042EA05120F4D104EA84201D0B04206D17E
:1031D000CF6822F0800242EA071222F04002A842A1
:1031E00001D0B04207D14D6923F4406343EA85031F
:1031F0008D6943EA850343608461496881630262A3
:10320000F0BD00000000014000040140F0B5026A7A
:1032100022F480720262026A4368C46922F4007276
:1032200024F073050C68124E2C438D6842EA052287
:103230000E4DA84201D0B04206D1CF6822F4006200
:1032400042EA072222F48062A84201D0B04207D1AC
:103250004D6923F4405343EA05138D6943EA05138E
:103260004360C4614968C1630262F0BD000001406F
:103270000004014030B5026A22F480520262046AFE
:103280004268C3690D6823F4E64343EA05238D6869
:1032900024F4005444EA0534084DA84202D0084DF5
:1032A000A84204D14D6922F4804242EA851242606C
:1032B000C36149680164046230BD00000000014040
:1032C0000004014010B5806B0021C185C184FEF768
:1032D000AFFF10BD01680C3151E8002F22F490724D
:1032E00041E80023002BF5D10168143151E8002F8B
:1032F00022F0010241E80023002BF5D1016B0129E6
:1033000009D101680C3151E8002F22F0100241E888
:103310000023002BF5D1202180F83E10002101630D
:10332000704708B590F83E10222901D0022008BD50
:1033300082684FF480539A4201D1016921B1816AB8
:103340009A421BD04AB10AE00268816A5268C2F30D
:1033500008020A80816A891C08E0026972B1026869
:10336000526802F07F020A70816A491C8162C18D35
:10337000491E0904090CC18503D019E0026852688E
:10338000F1E70168CA6822F02002CA600168CA68D1
:1033900022F48072CA6001684A6922F001024A611F
:1033A000202180F83E10016B012903D0FFF746F978
:1033B000002008BD0021016301680C3151E8002F95
:1033C00022F0100241E80023002BF5D101680A68C1
:1033D000D20602D50A6849680091818DFEF727FF61
:1033E000E6E7000070B5044600680169E26821F470
:1033F0004051114301612169A068E2690843616994
:10340000114308432168CA6849F20C639A43024396
:10341000CA6020684169A26921F440711143416189
:1034200031492068884202D03049884202D1FEF7F3
:10343000F7F801E0FEF7E4F8E269002319216425BA
:103440003226B2F5004F626828D0A0FB0101930F2D
:103450009200FCF717FF0146B0FBF5F06FF0180281
:10346000504301EB800006EB0010B0FBF5F000F0DC
:10347000F002B1FBF5F002EB0012B1FBF5F06FF0DA
:103480001803584301EB800006EB0010B0FBF5F089
:1034900000F00F0021681044886070BDA0FB01019E
:1034A00092185B41FCF7EEFE0146B0FBF5F002011D
:1034B000B1FBF5F06FF01803584301EB800006EB09
:1034C000C000B0FBF5F000F0F80002EB4002B1FBE9
:1034D000F5F0584301EB800006EBC000B0FBF5F0BF
:1034E00000F00700D6E70000001001400014014082
:1034F00081628285C28500210164222280F83E20FB
:1035000080F83C10016921B10168CA6842F48072F8
:10351000CA6001684A6942F001024A610068C168F4
:1035200041F02001C160002070472DE9F04198462C
:1035300017460E460446069D27E0681C25D02DB18F
:10354000FDF7E8FDA0EB0800A8421ED920680C306A
:1035500050E8001F21F4D07140E80012002AF5D194
:103560002068143050E8001F21F0010140E80012EB
:10357000002AF5D1202084F83D0084F83E00002088
:1035800084F83C000320BDE8F0812068006836EA3A
:10359000000004D00020B842CFD00020F3E7012083
:1035A000F9E700000FB4094810B503AA029900F02A
:1035B0002DF80649044682B2FF2301F52A70FFF771
:1035C000BDF8204610BC5DF814FB0000B8060020D2
:1035D0000148FEF72FBE0000600900200148FEF7F9
:1035E00029BE0000A4090020FEE700000FB4054B2F
:1035F00010B503A9044A029800F098F910BC5DF8D0
:1036000014FB000009420008FC00002037B51446F6
:103610000846064B6A46214600F088F9044669468A
:10362000002000F006FD20463EBD000033400008AB
:103630000907090E002804DB00F1E02080F80014DF
:10364000704700F00F0000F1E02080F8141D704773
:1036500030B528B1144C031F002021680A4605E04C
:10366000084630BD9A4203D810465268002AF9D164
:10367000002800D041680BD00468A3EB0005A542E8
:1036800004D11B681C440346046002E0436000E070
:1036900023603AB11C68D51AA54203D115682C44A1
:1036A0001C6052685A6030BD00010020000000001C
:1036B00030B583B0044600F053F89FED090B054682
:1036C0008DED000B002221466846FDF7AEFA284634
:1036D00000F05CF89DED000B03B030BD0000000071
:1036E000000000000000000000B583B09FED060B55
:1036F0000A4601468DED000B6846FDF796FA9DEDF2
:10370000000B03B000BD000000000000000000003E
:103710002DE9F04782460F4C10480D4E0E4F001B0E
:103720004FF0000820F007054FF001090022114674
:10373000504600F0B1FD002802D1306810B10020E1
:10374000BDE8F0873C60C4E90058C6F80090EDE79A
:10375000040100205C47002000010020584900209F
:1037600001480068704700000801002002E008C816
:10377000121F08C1002AFAD170477047002001E0EB
:1037800001C1121F002AFBD17047000001490860E7
:1037900070470000080100202DE9FF5F82B0002182
:1037A000DDE90430020DDDF840B0034318D044F6E3
:1037B0001050A2F2FF3242431514119801281FD075
:1037C000A5EB0B00401C5FEA000A4FF000064E4FCD
:1037D000DFF83891B046504615D5CAF1000413E021
:1037E000119801244AA3012801D16FEA0B01029824
:1037F000119AC0E90031C0E9024206B0BDE8F09F6D
:10380000CBF10000DFE704460021404A491842EBB3
:103810000450CDE9001012E0E00707D032463B46E5
:1038200040464946FDF70DF88046894632463B46FC
:1038300010461946FDF705F806460F466410002CA1
:10384000EAD1DDE90401DDE90023BAF1000F06DA6F
:10385000FCF7F7FF42464B46FCF7F3FF05E0FDF7A8
:1038600062F842464B46FDF75EF804460E460022DB
:10387000284BFDF723F903D84FF0FF30014607E04E
:103880000022254B20463146FCF734FFFDF7A0FA15
:10389000102409E0002C0ADB0A220023FCF7F2FCCA
:1038A000039B30321A55641E50EA0102F2D1641CA7
:1038B000039AC4F111031444119A012A03D001227E
:1038C00008430DD10AE0084304D000204FF0110B4B
:1038D000119072E7A3EB0B056D1E0DE05B4504DD57
:1038E0004FF0000205F1010504E003DA4FF0000299
:1038F000A5F10105002AECD002981199C0E9023126
:10390000C0E9004579E70000000014400000F03FE6
:10391000300000000000F0430000E03F30380A288B
:1039200001D2012070470020704700002DE9FF4FB1
:1039300095B09A46884606460025EEE1252877D1BF
:1039400000242746F94A0121039400E0044316F8B5
:10395000013F203B01FA03F01042F7D130782A28CA
:1039600011D06FF02F033078A0F13002092A16D859
:10397000039A44F0020402EB820203EB4202104479
:10398000761C0390EFE758F8042B0392002A03DA21
:10399000504244F40054039044F00204761C307802
:1039A0002E2816D116F8010F44F004042A280DD051
:1039B0006FF02F023078A0F13003092B09D807EB04
:1039C000870302EB4303C718761CF3E758F8047B20
:1039D000761C30786C280FD006DC4C2817D068286D
:1039E0000DD06A2814D104E0742810D07A280FD1A1
:1039F0000DE044F400140AE044F4801401E044F4BF
:103A000040147278824202D104F58014761C761C30
:103A1000307866280BD013DC582877D009DC0028D2
:103A200075D04528F6D04628F4D047281AD193E11E
:103A300018E0632835D0642879D0652812D18BE14D
:103A4000702873D008DC6728F1D069286FD06E2801
:103A50000DD06F2806D1ACE073282CD0752874D017
:103A6000782853D05246179990476D1C54E1C4F3FF
:103A70000250022809D003280DD0D8F800100428DD
:103A80000DD00D6008F1040846E1D8F80010EA17DF
:103A9000C1E90052F6E7D8F800100D80F2E70D708A
:103AA000F0E718F8041B8DF8001000208DF80100D5
:103AB000EB46012003E058F804BB4FF0FF306107EC
:103AC0004FF0000102D40DE009F101018946B9422D
:103AD0000FDA8145F8DB1BF809100029F4D108E062
:103AE00009F1010189468142FADB1BF8091000291E
:103AF000F6D103985346A0EB090721463846179A9A
:103B000000F080FA284400EB090507E044E008E1F2
:103B10000DE01BF8010B524617999047B9F10109C6
:103B2000F7D2534621463846179AF2E039E00A2187
:103B3000C4F302524FF0000B0091022A06D058F84D
:103B4000040BC117032A09D00AE023E008F107009B
:103B500020F00702F2E80201904605E000B2C1172A
:103B6000042A01D140B2C117002906DA0A46002111
:103B7000404261EB02012D2202E0220504D52B22F6
:103B80008DF80420012203E0E20701D02022F7E7AC
:103B9000914657E00A2100E010214FF0000B009100
:103BA0000BE010214FF0000B44F0040408270091B3
:103BB00003E008204FF0000B0090C4F30252022AE9
:103BC00005D058F8040B0021032A08D008E008F1BA
:103BD000070020F00702F2E80201904603E080B2FD
:103BE000042A00D1C0B24FF0000922072AD532784A
:103BF000702A07D0DDF800C08CF0100C5CEA0B0CCA
:103C000005D00EE040228DF80420012208E050EAA1
:103C1000010306D030238DF804308DF805200222F0
:103C20009146009B83F0080353EA0B030AD150EA44
:103C3000010201D1620705D530228DF804204FF032
:103C400001097F1E3278582A04D039A20C920CAA9E
:103C500002920BE03BA2F9E75B46009AFCF712FBED
:103C60000C9B9B5C029A521E0292137050EA010256
:103C7000F2D1029804A9081A00F1200B600702D5BE
:103C800024F4803400E001275F4502DDA7EB0B0040
:103C900000E0002000EB0B01009003984944401A1B
:103CA0000390E00306D453462146179A039800F088
:103CB000A9F90544002706E001A85246C05D1799FE
:103CC00090476D1C7F1C4F45F6DBE0030CD5534637
:103CD0002146179A039800F095F9054404E0302036
:103CE0005246179990476D1C0099481E0090002974
:103CF000F5DC08E00298029952460078491C0291CE
:103D0000179990476D1CBBF10001ABF1010BF1DC81
:103D10005BE100F065F90544761C307800287FF4FB
:103D20000DAE19B02846BDE8F08F0000092801004B
:103D30003031323334353637383961626364656621
:103D400000000000303132333435363738394142E3
:103D50004344454600000000600700D4062708F1F0
:103D6000070020F00700F0E80223804603F0004C33
:103D70005FEA0C0001D097A009E0200501D596A0CC
:103D800005E0E00701D095A001E0AFF24C001390F0
:103D9000307823F0004365280CD006DC452809D094
:103DA00046281DD047287FD13BE0662818D06728D9
:103DB0007AD136E00021112F01DB112000E0781CC0
:103DC000CDE9000104A90CA8FFF7E6FCDDE90D012F
:103DD0000C9A4FF0000B07F10109109200914EE090
:103DE0004FF000400097CDE9011004A90CA8FFF79F
:103DF000D3FCDDE90D020C9B0F994FF0000B9146AF
:103E00001093009211B9791C00EB0109B7EB09007E
:103E100003D4C0F1FF3B07F10109A9EB07000190B2
:103E200042E0012F00DA01270021112F01DD1120CE
:103E300000E03846CDE9000104A90CA8FFF7ACFC6E
:103E4000DDE90D010C9A00914FF0000BB94610927C
:103E500021070FD4009A4A4503DA914601E0A9F1FF
:103E60000109B9F1010F05DD109AA9F10101515CB9
:103E70003029F4D0B84202DA10F1040F03DA01213C
:103E8000CDE9011010E0002803DC8344A9EB000118
:103E900002E0411C494500DD8946A0EB0B00401CB7
:103EA00001904FF000400290200705D4019848454A
:103EB00002DB4FF0FF30019000208DF84B0002989C
:103EC0000DF14B07B0F1004F25D002200C902B20B4
:103ED0000D90029800280CDA404202902D200D909F
:103EE00007E00A210298FCF71DFE3031029007F826
:103EF000011D0C99481E0C900029F2DC0298002844
:103F0000EFD1791E0D980870307800F0200040F055
:103F1000450007F8020D11A8C01BC01D02901398A0
:103F2000007800B1012000EB0901019801EBE0717C
:103F3000029801440398401A401E0390E00306D4FF
:103F400053462146179A039800F05CF805441398ED
:103F5000007818B15246179990476D1CE00323D59D
:103F600053462146179A039800F04CF805441BE08D
:103F7000BBF1000F07DB0098584504DD1098179936
:103F800010F80B0001E01799302052469047019835
:103F90000BF1010B401E05F10105019004D12E200B
:103FA0005246179990476D1CB9F10001A9F101091A
:103FB000DEDC05E017F8010B5246179990476D1C9F
:103FC0000299481E02900029F4DC53462146179AB4
:103FD00003989EE62D0000002B000000200000004A
:103FE0002DE9F041044600251E461746880404D4F6
:103FF00005E039462020B0476D1C641EF9D52846DF
:10400000BDE8F0812DE9F041044600251E469046AA
:10401000C80301D5302700E02027880404D505E037
:1040200041463846B0476D1C641EF9D52846BDE8A8
:10403000F0810A68531C0B601070704710B588B18E
:1040400003687BB142688168914206D25C5C202C97
:1040500003D8491C81600028F5D1914201D1491E45
:10406000816010BD002010BD70B504460F4E19E0F0
:10407000A0892568C0050AD4A06820B1FFF7F4FF25
:10408000A089C00503D4206908B171688847A08958
:10409000800503D4206A08B171688847716820469A
:1040A00088472C46002CE3D170BD0000580000204A
:1040B000002200F0B3B810B501682820884704003A
:1040C00002D02821FCF72EF9204610BD002211460F
:1040D000AFF300802DE9F04788B00D4604469246C4
:1040E0001C216846FCF71EF931480026002C0660AA
:1040F00046605AD020460094FCF71FF9401CDFF8B8
:10410000B090CDE90106D9E90212D9F81000049166
:10411000CDE90520B04609F10800FFF7CCFF070004
:104120002BD000986E4608B1029808B100260BE02B
:104130000198042808D903221EA10098FCF71BF956
:1041400010B90298C01C02903046FFF777FF014675
:10415000384600F007FD68B1BAF1000F14D0684688
:10416000FFF76CFFDDE90101814203D2029900985B
:10417000405C48B13846FFF777FFDDE90121404652
:1041800091420AD208460BE01DB1029900980844FA
:104190002860384608B0BDE8F087111E00D0481EE0
:1041A0000DB121182960C9E900400020F2E70000A4
:1041B00050000020EFBBBF0010B510EE100AFCF756
:1041C00051FC9FED0B1B53EC112BFCF7ACFB9FED4F
:1041D0000A1B53EC112BFCF734FB9FED091B53EC2E
:1041E000112BFCF72EFBFCF781FC00EE100A10BD32
:1041F0007D3F355EBA0935400000000000004A40AE
:104200000000000000003E4003490A685206FCD549
:10421000C2B24A6070470000001001402DE9F04131
:104220008846A8B3B8F1000F33D084680AB90AE011
:1042300024686CB3216A59B34046FCF785F800281E
:10424000F6D120E024681CB3266A5FEA0805F9D09D
:10425000002EF7D0B54218D002E098B16D1C761C44
:104260002878FCF740F807463078FCF73CF887429E
:104270002878F2D0FCF737F805463078FCF733F8A9
:104280008542DFD124B1206A10B12046BDE8F0811B
:10429000FFE70020FAE700002DE9F0410B3020F0A5
:1042A0000706104D19E02068B04215D3B0420AD974
:1042B000871B201DD4F80480FCF71BF8A019C0E967
:1042C0000078286004E060682860201DFCF711F881
:1042D000201D2660BDE8F081251D2C68002CE2D150
:1042E0000020F7E7000100202DE9F047FFF7EEFE80
:1042F000824629A1FFF7DCFE814628A15046FFF740
:10430000D7FE804626A15046FFF7D2FE074625A1DC
:104310005046FFF7CDFE064623A15046FFF7C8FEE4
:10432000054622A15046FFF7C3FE04463B69D8F874
:1043300010201FA0D9F81010FFF758F923692A6937
:1043400021A03169FFF752F92548D9F81010FCF780
:1043500009F82348D8F81010401DFCF703F820484E
:1043600039690A30FBF7FEFF1D4831690F30FBF752
:10437000F9FF1B4829691430FBF7F4FF184821693D
:104380001930FBF7EFFF16490DA0FFF72FF9504644
:10439000BDE8F047FFF768BE3100000032000000C2
:1043A000330000003400000035000000360000003B
:1043B000313A2573202020323A2573202020333AC9
:1043C00025730D0A00000000343A257320202035A3
:1043D0003A2573202020363A25730D0A000000008C
:1043E0006400002010B5164C16482DED028B94ED9C
:1043F000000AB8EEC00A00F043F8B0EE408A18EEAA
:10440000100AFCF72FFB41EC100B0FA053EC102B04
:104410002168FFF7C7F818EE100A1549884202DD37
:104420009FED148A06E018EE100A1349884201D95C
:104430009FED128AB0EE480ABDEC028B10BD000061
:1044400038000020280A0020456E636F64657244BE
:104450006174615F4C5F53554D3A256C640920636C
:104460006F6E745F76616C3A25660D0A000000007D
:104470000000C8420000C8420000C8C20000C8C214
:10448000D0ED000A1A4A30EEC00A10EE101A80ED84
:10449000020A91420FD810EE101A164A91420ADC15
:1044A000164A9FED150A002180ED020A80ED070AE9
:1044B000116080ED000A90ED070AD0ED020A30EE9F
:1044C000201A80ED071A90ED040AD0ED051A20EEAF
:1044D000200A01EE810A90ED031AD0ED061A30EEA3
:1044E000C11A01EE810A80ED010AC0ED030A70478E
:1044F000000020C100002041000000003800002022
:1045000010B516482DED028B90ED000A1448B8EE58
:10451000C00A00F045F8B0EE408A18EE100AFCF729
:10452000A1FA41EC100B0F4853EC102B01680EA0C0
:10453000FFF738F818EE100A1549884202DD9FEDA2
:10454000158A06E018EE100A1349884201D99FED3A
:10455000138AB0EE480ABDEC028B10BD3C0000206F
:10456000480A002038000020456E636F646572447D
:104570006174615F525F53554D3A256C6409206345
:104580006F6E745F76616C3A25660D0A000000005C
:104590000000C8420000C8420000C8C20000C8C2F3
:1045A00070B504462DED028B82B0D0ED000A30EEDE
:1045B000C08A80ED028A10EE100AFCF753FA054615
:1045C0000E4618EE100AFCF74DFA41EC100BCDE93F
:1045D000005653EC102B1AA0FEF7E4FF2049A06808
:1045E00088420DD81F4988420ADC20499FED1E0AE7
:1045F000002084ED020A84ED070A086084ED000AB9
:1046000094ED070AD4ED020A30EE201A84ED071A61
:1046100094ED040AD4ED051A20EE200A01EE810A79
:1046200094ED031AD4ED061A30EEC11A01EE810A98
:1046300084ED010AC4ED030A02B0BDEC028B70BD2B
:104640007069642D3E6572723A2566092061637453
:1046500075616C5F76616C3A25660D0A000000009A
:10466000000020C100002041000000003C000020AC
:10467000FCF796FEFEF794FCFEF716F9FEF762F9DA
:10468000FEF708FAFEF73EFAFEF772FAFEF794FA22
:10469000FEF7B4FAFEF7CEFAFEF774F9FEF792F9D8
:1046A000FEF7C4F9FEF7E8FA0648FDF789FA06486E
:1046B000FDF786FAFEF704FBFEF7CCF800F013F8DE
:1046C000FEE7000098050020E005002001460020DC
:1046D000842900D0C81C704710B500B9012000F033
:1046E0002BFF002010BD10B500F04CFF002010BDC6
:1046F0007FB50D4604464169B0F9080081B1A16952
:1047000071B1FFF7E3FFD4E905128DE80700D4E9A2
:1047100000102B46226901F05EF8039004B070BDD2
:10472000FFF7D4FF03A9CDE90001208A2B4682B20E
:10473000D4E9001001F022F8012801D00020EDE7B3
:104740000398EBE72DE9F04107460025C8680C46C1
:104750002E46B0F57A7F59D2401CE0602168A068EF
:10476000095C5B2952D1401CA0602046FFF766FC23
:104770004CB1D4E90110884203D22268125C5D2A50
:1047800033D0884203D3A068401EA0603EE0401EA4
:1047900004F11008A0604046FFF78DFC88B30DB30C
:1047A000306046600646A068401CA0602046FFF7C7
:1047B00045FC2146304600F0D5F920B32046FFF7EE
:1047C0003DFC04B3D4E90110884203D22168095C9E
:1047D0002C29E0D06268904215D22168085C5D28DF
:1047E00011D102E005462E46DDE7E068401EE0609C
:1047F0002020C7E90250A068401CA0600120BDE84D
:10480000F081FFE715B12846FFF72EFC0020F6E700
:10481000034610B500200246995CA1F13004092C32
:1048200001D830380AE0A1F14104052C01D837380D
:1048300004E0A1F16104052C08D857380844032A84
:1048400000D20001521C042AE6D310BD002010BD86
:10485000F0B54FF000022DED028B91B00C00054633
:104860004FF02E03114610923DD02068D8B36E460B
:1048700027E027683844085C34281BD00ADCA0F104
:104880002B07092F23D2DFE807F015221517221571
:104890001515150038280DD006DC35280AD0362825
:1048A00008D0372813D105E0392803D0452801D096
:1048B00065280CD1705400E07354491C3F2906D27E
:1048C0002CB1A068D4F804C047186745D1D37254FE
:1048D00010A93046FEF708FF1098B0EE408AF0EEBF
:1048E000608A864204D1002011B0BDEC028BF0BD7D
:1048F0009FED130B85ED068B53EC102B51EC180B31
:10490000FCF7DCF802D86FF000400FE09FED0E0BD3
:1049100051EC180B53EC102BFCF7B8F802D84FF001
:10492000004003E051EC180BFCF77DF868610820AB
:10493000E8601099A068891B0844A0600120D3E7B3
:104940000000C0FFFFFFDF41000000000000E0C1E9
:104950002DE9F04107460026C8680C463546B0F5FB
:104960007A7F76D2401CE060002C72D0D4E901102E
:1049700088426ED22168095C7B296AD1401CA06004
:104980002046FFF75BFBD4E90110884203D222687E
:10499000125C7D2A4CD08842A0F10100A06058D260
:1049A00004F110084046FFF786FBE8B3F6B1286033
:1049B00045600546A068401CA0602046FFF73EFB0E
:1049C0002146284600F047F878B32046FFF736FB2B
:1049D00028692862002028613CB3D4E9011088428C
:1049E00034D22168095C3A2930D102E006463546C6
:1049F000E0E7401CA0602046FFF720FB2146284648
:104A000000F0B0F888B12046FFF718FBD4E9011098
:104A1000884203D22168095C2C29C3D06268904285
:104A200014D22168085C01E00FE00FE07D280DD171
:104A3000E068401EE0604020C7E90260A068401CBA
:104A4000A0600120BDE8F08103E016B13046FFF719
:104A50000BFB0020F6E72DE9F84380468B680868D9
:104A60004FF00009C418CDF8009008680E46651C88
:104A7000C15C641C22296ED10022716808E0BCF17F
:104A80005C0F04D17F1C8F4265D2521C641C641CD5
:104A9000271A8F4204D294F800C0BCF1220FEED145
:104AA000271A8F4257D22178222954D11844201A2C
:104AB000801A3169401C884707004CD0009737E0C6
:104AC00029785C2905D000986D1C00F8011B009026
:104AD0002EE00220611B012939DB6A78662A14D096
:104AE00008DC222A12D02F2A10D05C2A0ED0622A8B
:104AF0002DD108E06E2A0ED0722A0ED0742A0ED064
:104B0000752A24D10DE0082200E00C22009901F85A
:104B1000012B00910BE00A22F8E70D22F6E70922AB
:104B2000F4E76A462146284600F0D6FB78B10544F2
:104B3000A542C5D3009981F800901021C8E9031758
:104B40003068201A401CB0600120BDE8F88317B11E
:104B500071693846884715B13068281AB06000205E
:104B6000F3E7000070B50C0005465ED02068002811
:104B70005BD0A16863680A1D9A4205D808440422E4
:104B800031A1FBF7F8FB78B3A0686268411D0126EC
:104B9000914206D82168052208442DA1FBF7EBFBC2
:104BA00028B3A0686268011D914206D821680422DA
:104BB000084429A1FBF7DFFBE8B1D4E901018142F8
:104BC00003D22268525C222A1DD0814221D222685F
:104BD000525C2D2A02D0303A092A1AD8214628469A
:104BE000BDE87040FFF734BE0420E86006E0EE60E8
:104BF000A068401D04E002206E61E860A068001D0E
:104C0000A060012070BD21462846BDE87040FFF736
:104C100022BF814203D22268525C5B2A07D08142C4
:104C200003D22068405C7B2807D0002070BD21465D
:104C30002846BDE87040FFF785BD21462846BDE8FF
:104C40007040FFF785BE00006E756C6C00000000C0
:104C500066616C7365000000747275650000000089
:104C60002DE9F041184C0F460546E6682068001D06
:104C700000F09BFB38B9206890F82C100120884088
:104C8000216981432161681C07D137B12168BDE8E2
:104C9000F0410E48091D00F0CBBB20683544B542F9
:104CA0004560216805D2A06BBDE8F041091D00F008
:104CB000A7BB606B091D00F0A3FBA06A854200D270
:104CC000A562BDE8F081000094000020440B0020A4
:104CD0002DE9F041054600F0B7FB2E4CA068401CC2
:104CE000A06020682C4F10B1606940B32DE02560B2
:104CF000A068012829D1002606EB860007EB80007A
:104D000000F070FB761C072EF6D323488C3000F0A1
:104D100069FB2148A03000F065FB1F48B43000F06B
:104D200061FB1D48C83000F05DFB1B48DC3000F023
:104D300059FB19488C3060631430A06305E020688B
:104D4000E96AC06A884200D82560606A401C6062D7
:104D5000E96A0120226988401043206101EB81004B
:104D600007EB8000291D00F063FB00F08DFB6069FC
:104D700000280CD02068E96AC06A884207D2074937
:104D80004FF080500860BFF34F8FBFF36F8FBDE8C7
:104D9000F081000094000020680A002004ED00E08B
:104DA00010B5044690F8510058B101280CD00228E3
:104DB0000FD0502080F31188BFF34F8FBFF36F8F58
:104DC000FEE7206B00F074FB2046BDE8104000F0C9
:104DD0006FBB10BD10484FF47051420706D0C01D84
:104DE0000D4920F00700411AC1F570510B4A00230C
:104DF0000144C2E900030839183A21F007011160A3
:104E00004B600B600B1AC0E9001393604FF0004039
:104E10005360506170470000580B0020E8000020EC
:104E2000144E154CA6F1C8074FF08058DFF84C908F
:104E300012E000BF00F008FBF068C568281D00F014
:104E4000B4FAA068401EA0606068401E606000F078
:104E50001BFB2846FFF7A4FF60680028EAD13868EA
:104E60000128F9D9C9F80080BFF34F8FBFF36F8FC6
:104E7000F2E70000300B00209400002004ED00E079
:104E80002DE9F0479A46DDE9098481466FF0030376
:104E9000206B03EB82021044089E20F0070778077E
:104EA00007D0502080F31188BFF34F8FBFF36F8F6F
:104EB000FEE7002561B1002023180A5C83F8342046
:104EC0000A5C12B1401C1028F6D384F8435001E06C
:104ED00084F83450072E00D30626E662C4E9116533
:104EE000201D00F08AFA04F1180000F086FA24610F
:104EF000C6F107006462A061E56484F85050524630
:104F00004946384600F0C0F82060B8F1000F01D0E3
:104F1000C8F80040BDE8F08730B5114900E01146FF
:104F20000A688242FBD34B685C18844203D1406814
:104F300018444860084643681C18944209D1084C3C
:104F4000183C2468A24209D052681A4442600A6898
:104F500012680260814200D0086030BD0460F9E749
:104F6000E80000200648416B096829B1416BC96817
:104F7000C9684968816270474FF0FF31FAE7000065
:104F80009400002008484068401C4FF0500080F317
:104F9000118804D0BFF34F8FBFF36F8FFEE7BFF3CD
:104FA0004F8FBFF36F8FFEE7F00000202DE9F04137
:104FB0000546002700F01CFB324E306808B9FFF7A9
:104FC00009FF706905424ED1C5B3083568070ED098
:104FD00005F00700C0F108000544680707D050201D
:104FE00080F31188BFF34F8FBFF36F8FFEE72DB3B0
:104FF0007068854237D82348183001460C6801E0B4
:1050000020460C466168A94202D221680029F7D1E6
:1050100031688C4227D007682168016060680837D2
:10502000411B10290FD96019420708D0502080F386
:105030001188BFF34F8FBFF36F8FFEE713E041601E
:105040006560FFF769FF61687068401A7060B26858
:10505000904200D2B060706901430020C4E90001B1
:10506000F068401CF06000F055FC780707D0502035
:1050700080F31188BFF34F8FBFF36F8FFEE7384681
:10508000BDE8F081D000002010B5031F4FF0807400
:105090001C601B1F21F001011960191F044B0B60DC
:1050A00014390A60091F6FF0020244380A6010BD0B
:1050B000854F00082DE9F04704008A4616D054F8C1
:1050C000047CD4F800903E1F564500D95646204631
:1050D000FEF7BEFA05468846324621465046FFF79F
:1050E000DBF840B1C0F80090BDE8F087BDE8F047BC
:1050F0000846FEF70DBB44E9017955B129686A18E5
:10510000211F8A4202D9611B091F2960C5F804804A
:10511000EAE7024AC2F80080E6E70000000100204A
:1051200080ED000A70470000114810B500684EF687
:105130006021484347F6E01190FBF1F0FBF762FC79
:10514000FBF7D4FC00EE100A0A4800F01DF810EE40
:10515000100A0949884202DD9FED080A10BD10EED1
:10516000100A07498842F9D99FED060A10BD0000D0
:1051700040000020E80900200000C8440000C844A6
:105180000000C8C40000C8C4D0ED000A184A70EE80
:10519000C00AC0ED020A90ED070A30EE200A10EEB8
:1051A000101A80ED070A914202DB9FED120A06E019
:1051B00010EE101A104A914203D99FED100A80EDAB
:1051C000070A90ED040A90ED051AD0ED071A20EEBB
:1051D000200A01EE210A90ED031AD0ED061A30EEF6
:1051E000C11A01EE810A80ED010AC0ED030A704781
:1051F0000000964400009644000096C4000096C447
:10520000114810B500684EF66021484347F6E0119A
:1052100090FBF1F0FBF7F6FBFBF768FC00EE100AE1
:105220000A4800F01DF810EE100A0949884202DD14
:105230009FED080A10BD10EE100A07498842F9D9FF
:105240009FED060A10BD000044000020080A00205F
:105250000000C8440000C8440000C8C40000C8C41E
:10526000D0ED000A184A70EEC00AC0ED020A90EDB7
:10527000070A30EE200A10EE101A80ED070A91425C
:1052800002DB9FED120A06E010EE101A104A91425E
:1052900003D99FED100A80ED070A90ED040A90ED06
:1052A000051AD0ED071A20EE200A01EE210A90ED32
:1052B000031AD0ED061A30EEC11A01EE810A80ED14
:1052C000010AC0ED030A70470000964400009644AE
:1052D000000096C4000096C42DE9F047054600275B
:1052E000481B1646894606285DDBA81CFFF790FA86
:1052F0000446A0F55C414FF48060814253D3A4F58D
:105300005841824651451AD2A81DA9EB00014FF021
:105310000C08062947DB01785C2944D141787529BE
:1053200041D1801CFFF774FAA0F55C4151453AD297
:10533000C4F3090161F39F2000F5803002E04FF0D3
:1053400006082046802801D2012110E0B0F5006F48
:1053500002D20221C0270AE0B0F5803F02D2032129
:10536000E02704E0B0F5881F1DD20421F0274A1E73
:1053700008E000BF00F0BF03346843F080038009F9
:10538000A354521E12F0FF02F4D1012901D938436F
:1053900001E000F07F00326810703068084430602F
:1053A0004046BDE8F0870020FBE7D0E90132016903
:1053B0009A60D0E901235A604A68824201D182682A
:1053C0004A60002202610868401E08600868704751
:1053D000034B036003F154000860802010607047A5
:1053E0000C02002000F108014FF0FF32C0E9011269
:1053F000C1600161002101607047002101617047B7
:1054000030B50B685A1C02D000F1080202E00269B4
:1054100004E02246546825689D42FAD953684B60DF
:1054200099608A60516008610168491C016030BD63
:1054300042684A6093688B60936859609160086124
:105440000168491C01607047502080F31188BFF348
:105450004F8FBFF36F8F0A494868401C486001288E
:105460000CD10848006810F0FF0F07D0502080F3DF
:105470001188BFF34F8FBFF36F8FFEE770470000B7
:10548000F000002004ED00E00849486828B1401E03
:10549000486001D180F311887047502080F3118853
:1054A000BFF34F8FBFF36F8FFEE70000F0000020C7
:1054B00070B500282AD0164DA0F10804606869690B
:1054C000084207D1502080F31188BFF34F8FBFF3FC
:1054D0006F8FFEE722683AB1502080F31188BFF346
:1054E0004F8FBFF36F8FFEE78843606000F080F856
:1054F00060686968084468602046FFF70DFD286908
:10550000401C2861BDE8704000F004BA70BD000086
:10551000D00000204FF0E0200021016181610549A9
:105520004FF47A720968B1FBF2F1491E416107211B
:10553000016170472000002010B5020014D00F4810
:10554000006B38B1502080F31188BFF34F8FBFF349
:105550006F8FFEE700F04CF800211046FFF780FB4C
:1055600000F0D8F9002807D105494FF080500860B5
:10557000BFF34F8FBFF36F8F10BD0000940000206A
:1055800004ED00E010B586B00024039405AA04A938
:1055900003A80494FFF71CFFDDE903010094CDE9A3
:1055A000011000230EA11048059A00F014F90F49CC
:1055B0000028C86211D0502080F31188BFF34F8FAC
:1055C000BFF36F8F4FF0FF30886201204861CC60DD
:1055D00006B0BDE8104000F041B806B010BD0000B4
:1055E00049444C4500000000214E00089400002072
:1055F0000248016B491C01637047000094000020C1
:105600001448016B11B10121C16170470021C161D2
:105610000169B1FA81F1C1F11F0101EB81020E496B
:1056200051F822306BB101EB820101F108034A68A5
:1056300052684A609A4201D152684A60D16801605A
:105640007047502080F31188BFF34F8FBFF36F8FE7
:10565000FEE7000094000020680A00201CB53748CF
:105660000168374A914207D1502080F31188BFF377
:105670004F8FBFF36F8FFEE700683149491E8842A4
:1056800007D1502080F31188BFF34F8FBFF36F8F86
:10569000FEE72C4908780190FF20087008788DF803
:1056A00000009DF800009DF8002000F0F0009042FE
:1056B00007D0502080F31188BFF34F8FBFF36F8F57
:1056C000FEE79DF80000204C00F0500020700720FD
:1056D000A06005E09DF8002052008DF80020401EDB
:1056E0009DF800201206F5D4A060032807D05020B2
:1056F00080F31188BFF34F8FBFF36F8FFEE74FF436
:105700004070A060019808700C482030016841F496
:1057100070010160016841F070410160FFF7FAFE1D
:1057200000206060FAF760FD0848016841F04041E0
:105730000160FAF745FD00201CBD000000ED00E00F
:1057400071C20F4100E400E0F000002034EF00E0FF
:1057500010B5502080F31188BFF34F8FBFF36F8FC8
:1057600000F072F818B104494FF080500860002032
:1057700080F3118810BD000004ED00E02DE9FF5F0B
:105780008346DDE90E87994616468A469000FFF764
:105790000DFC05001CD05420FFF708FC040014D0B9
:1057A0000020256384F85100CDE90240CDE900874F
:1057B0004B46324651465846FFF762FB2046FFF7FC
:1057C00087FA012004B0BDE8F09F2846FFF770FE7D
:1057D0004FF0FF30F6E7F0B585B0DDE90B640A9DC8
:1057E000A6B1DCB1542700972663022684F85160E5
:1057F000002604AFCDE90246CDE90057FFF740FB94
:105800002046FFF765FA049805B0F0BD502080F3FC
:105810001188BFF34F8FBFF36F8FFEE7502080F3E7
:105820001188BFF34F8FBFF36F8FFEE705484169C3
:1058300019B1006B18B10020704701207047022099
:1058400070470000940000202DE9F0412F4C002605
:10585000206B28B1A069401CA0613046BDE8F081F2
:10586000E5686D1CE56013D1606B006838B15020AD
:1058700080F31188BFF34F8FBFF36F8FFEE7606B2C
:10588000A16B6163A063206A401C2062FFF76AFB82
:10589000A06ADFF87C80854209D3606B0068A0B104
:1058A000606BC068C7687868854211D2A0622068C2
:1058B000C06A00EB800158F82100012800D90126B8
:1058C000E0690028C9D00126C7E74FF0FF30EDE7B7
:1058D000381DFFF76AFDB86A18B107F11800FFF725
:1058E00064FDF96A0120226988401043206101EBC0
:1058F000810108EB8100391DFFF79AFDF86A2168E4
:10590000C96A8842C9D30126C7E700009400002075
:10591000680A00202DE9F0472C4D00242746286B0B
:1059200038B1FFF791FD286B401E2863286B40B10A
:1059300046E0502080F31188BFF34F8FBFF36F8F85
:10594000FEE7A968224E0120D1B3A6F1B409804632
:105950003068E8B1F068C46804F11800FFF725FD6D
:10596000201DFFF722FDE06A2A6908FA00F11143C1
:10597000296100EB800109EB8100211DFFF758FD33
:10598000E06A2968C96A8842E2D3C5F81C80DFE76B
:105990000CB1FFF7E7FAAC6944B14646FFF754FF94
:1059A00000B1EE61641EF9D10020A861E86938B148
:1059B0000849012738070860BFF34F8FBFF36F8F87
:1059C000FFF762FD3846BDE8F08700009400002034
:1059D0001C0B002004ED00E09C5A0008A92E0008D2
:1059E0000000000000000000800000000000000037
:1059F00000000000845A0008E12E0008FDFF0000AE
:105A00000000000000010000000000000000000095
:105A1000905A0008E92E0008FDFF00000000000079
:105A20000001000000000000000000000000000075
:105A3000000000000102030406070809000000003E
:105A400001020304DDDDDDDDDCBBBBDDDDDDDDDD35
:105A5000DDDDDDDD988888888888888877777777A6
:105A60007788888885555556666666666666666672
:105A7000666888888333333222222222222222221D
:105A80002228888D6D795461736B303200000000DC
:105A90006D795461736B303300000000646566619A
:105AA000756C745461736B00C85A000800000020C4
:105AB0000C0100006C370008D45B00080C010020CA
:105AC0004C4C00007C370008000000000000000083
:105AD00000000000000000000000000001000000C5
